:1000000000308A00F8280000FF00030E8301A100E1
:100010000A08A0008A010408A2007708A300780853
:10002000A4007908A5007A08A600831383120B1E8A
:100030001B288B1830288B1E1F280B1933282208E9
:1000400084002308F7002408F8002508F900260892
:10005000FA0020088A00210E8300FF0E7F0E09009F
:100060008A110A124A288A110A1258283730840045
:1000700083130008031949280630F800F701F70B2D
:100080003F28F80B3E287B30F700F70B4528800B04
:100090003C28080006160430B600FA30B7003620B7
:1000A000B60B4D280612B10A8B108A110A121F28AE
:1000B000051C69281430B7003620051C692801305A
:1000C00083168606831205186328061E6928061201
:1000D000B10A831606187B288312851C7A281430EF
:1000E000B7003620851C7A2810308606061EB10A15
:1000F0008518782883168312051D87281430B700C9
:100100003620051D8728B101061205198528E7301C
:1001100081000B118A110A121F28831605148514F9
:10012000051506148610061186110612861287011F
:10013000880183128A110A121A2983160117831261
:100140000B16C0308B048A110A121B298316010872
:10015000C73908388100E730831281008B16C03020
:100160008B048A110A121C293208093C031CBC2882
:10017000861406118611C7283208133C031CC428B4
:10018000861006158611C7288610061186158A1155
:100190000A121F293408F80133020318D228330841
:1001A000F700DE28F7010830B500B30DF70D34086D
:1001B00077020318F700F80DB50BD52808003208B0
:1001C000B3000A30B400CA202730780784008313B4
:1001D000000887003208B3000A30B400CA20273074
:1001E000770784008313000888008A110A122229E5
:1001F00003081F398300B10183161F149F141F15B4
:100200009F1107309C008313C0308312A700F93080
:10021000A800A430A900B030AA009930AB009230F9
:10022000AC008230AD00F830AE008030AF009030CE
:10023000B0008D289D28A6283108B200B4283108C6
:10024000B200DF288316061C2929831286162B2963
:0A0250008316831286121C29630036
:02400E003A3F37
:00000001FF
;PIC16F877A
;CRC=D2E9  CREATED="31-Jan-23 22:28"
