:1000000000308A00BD280000FF00030E8301A1001C
:100010000A08A0008A010408A2007708A300780853
:10002000A4007908A5007A08A600831383120B1E8A
:100030001B288B182C28220884002308F70024088A
:10004000F8002508F9002608FA0020088A00210E89
:100050008300FF0E7F0E09008A110A122F288B10D1
:100060000B138B138B1B3128B10A0130B200C03047
:100070008B048B108A110A121B2883168610061116
:10008000861106128701880183128A110A12E0285C
:1000900083160614011783120B16C0308B048A11C5
:1000A0000A12E1283608093C031C5A288614061156
:1000B000861165283608133C031C62288610061535
:1000C000861165288610061186158A110A12EA28FB
:1000D0003808F8013702031870283708F7007C2821
:1000E000F7010830B900B70DF70D3808770203188B
:1000F000F700F80DB90B732808003608B7000A306E
:10010000B800682027307807840083130008870030
:100110003608B7000A30B800682027307707840017
:100120008313000888000800B2080319B928B20137
:1001300006163108B6007D200330B700E830B6005F
:10014000B3013308043C031CAD28053081000108CD
:10015000FF3C031DA728B30AA12836080319B703DB
:10016000B603B608031DA028B708031DA028061271
:10017000BA2806128A110A12EE2803081F398300D2
:10018000B101B20183161F149F141F159F11073070
:100190009C008313C0308312A700F930A800A4305C
:1001A000A900B030AA009930AB009230AC00823088
:1001B000AD00F830AE008030AF009030B0003D2888
:1001C000482883160108C03901388100831231089C
:1001D000B60052283108B6007D209428E728630035
:02400E003A3F37
:00000001FF
;PIC16F877A
;CRC=46A8  CREATED="30-Jan-23 22:47"
