:1000000001308A001E290000FF00030E8301A100B9
:100010000A08A0008A010408A2007708A300780853
:10002000A4007908A5007A08A600831383120B1E8A
:100030001B288B1830288B1E1F280B1933282208E9
:1000400084002308F7002408F8002508F900260892
:10005000FA0020088A00210E8300FF0E7F0E09009F
:100060008A110A1236288A110A127E280616B3014E
:10007000B2018E018F018E0100000F08FA000E08F8
:10008000F7000F087A02031D3D287708B8007A08A8
:10009000B9003908C33C031C5A28031D53283808EB
:1000A0004F3C031C5A28061C5928B301B2010618FC
:1000B00057283D28B20A0319B30AB308031D642860
:1000C0003208633C031839280612B10A8B108A11D2
:1000D0000A121F28383084008313000803197D2872
:1000E0000630F800F701F70B7328F80B72287B3005
:1000F000F700F70B7928800B70280800051C8F2863
:100100001430B8006A20051C8F280130831686063B
:10011000831205188928061E8F280612B10A831635
:100120000618A1288312851CA0281430B8006A2064
:10013000851CA02810308606061EB10A85189E2848
:1001400083168312051DAD281430B8006A20051DE2
:10015000AD28B10106120519AB28E73081000B115B
:100160008A110A121F288316051485140515061412
:1001700086100611861106128612870188018312E5
:100180008A110A1242298316011783120B16C030F6
:100190008B048A110A12432983160108C7390838CB
:1001A0008100E730831281008B16C0308B048A11E6
:1001B0000A1244293408093C031CE228861406115B
:1001C0008611ED283408133C031CEA288610061516
:1001D0008611ED288610061186158A110A12492902
:1001E0003608F80135020318F8283508F700042905
:1001F000F7010830B700B50DF70D36087702031880
:10020000F700F80DB70BFB2808003408B5000A30DA
:10021000B600F02027307807840083130008870099
:100220003408B5000A30B600F02027307707840084
:100230008313000888008A110A124C2903081F3909
:100240008300B101B301B20183161F149F141F155F
:100250009F1107309C008313C0308312A700F93030
:10026000A800A430A900B030AA009930AB009230A9
:10027000AC008230AD00F830AE008030AF0090307E
:10028000B000B328C328CC28853090003108B400D2
:10029000DA283108B40005298316061C5329831275
:0E02A00086165529831683128612462963009E
:02400E003A3F37
:00000001FF
;PIC16F877A
;CRC=2D63  CREATED="01-Feb-23 00:26"
