:1000000000308A0095280000FF00030E8301A10044
:100010000A08A0008A010408A2007708A300780853
:10002000A4007908A5007A08A600831383120B1E8A
:100030001B288B182C28220884002308F70024088A
:10004000F8002508F9002608FA0020088A00210E89
:100050008300FF0E7F0E09008A110A122F288B10D1
:100060000B138B138B1B3128B10A0616C0308B047F
:100070008B108A110A121B2883168610061186110E
:1000800006128701880183128A110A12B728831683
:100090000614011783120B16C0308B048A110A1242
:1000A000B8283208093C031C592886140611861109
:1000B00064283208133C031C61288610061586113B
:1000C00064288610061186158A110A12BB28340886
:1000D000F801330203186F283308F7007B28F70173
:1000E0000830B500B30DF70D340877020318F70098
:1000F000F80DB50B722808003208B3000A30B400BE
:1001000067202730780784008313000887003208AF
:10011000B3000A30B40067202730770784008313C8
:10012000000888008A110A12BE2803081F398300BC
:10013000B10183161F149F141F159F1107309C00D7
:100140008313C0308312A700F930A800A430A9009F
:10015000B030AA009930AB009230AC008230AD00D4
:10016000F830AE008030AF009030B0003C28472817
:100170003108B20051283108B2007C28B828630049
:02400E003A3F37
:00000001FF
;PIC16F877A
;CRC=79CA  CREATED="30-Jan-23 16:55"
