:1000000000308A007F280000FF00030E8301A1005A
:100010000A08A0008A010408A2007708A300780853
:10002000A4007908A5007A08A600831383120B1E8A
:100030001B288B182C28220884002308F70024088A
:10004000F8002508F9002608FA0020088A00210E89
:100050008300FF0E7F0E09008A110A122F288B10D1
:100060000B138B138B1B3128023086060430860657
:1000700008308606C0308B048B108A110A121B28A8
:1000800083168610061186118701880183128A1152
:100090000A12A12883160614011783120B16C0300A
:1000A0008B048A110A12A2283308F80132020318BD
:1000B0005C283208F7006828F7010830B400B20D58
:1000C000F70D330877020318F700F80DB40B5F281B
:1000D0000800333084008313000803197C2806309D
:1000E000F800F701F70B7228F80B71287B30F70046
:1000F000F70B7828800B6F288A110A12C52803088D
:100100001F398300B10183161F149F141F159F11FF
:1001100007309C008313C0308312A700F930A80079
:10012000A430A900B030AA009930AB009230AC00E6
:100130008230AD00F830AE008030AF009030B000BB
:1001400040284A28861406158615B1013108633CFB
:10015000031CC9283108B2000A30B30054202730EC
:10016000780784008313000887003108B2000A3042
:10017000B3005420273077078400831300088800D9
:100180000430B200FA30B3006928B20BC228B10AB9
:06019000A628A22863006E
:02400E003A3F37
:00000001FF
;PIC16F877A
;CRC=0179  CREATED="29-Jan-23 19:55"
